{
  "_format": "hh-sol-artifact-1",
  "contractName": "TestContract",
  "sourceName": "contracts/TestContract.sol",
  "abi": [
    {
      "inputs": [
        {
          "internalType": "uint256",
          "name": "value",
          "type": "uint256"
        }
      ],
      "name": "decreaseTotal",
      "outputs": [],
      "stateMutability": "nonpayable",
      "type": "function"
    },
    {
      "inputs": [],
      "name": "getTotal",
      "outputs": [
        {
          "internalType": "uint256",
          "name": "",
          "type": "uint256"
        }
      ],
      "stateMutability": "view",
      "type": "function"
    },
    {
      "inputs": [
        {
          "internalType": "uint256",
          "name": "value",
          "type": "uint256"
        }
      ],
      "name": "increaseTotal",
      "outputs": [],
      "stateMutability": "nonpayable",
      "type": "function"
    },
    {
      "inputs": [
        {
          "internalType": "uint256",
          "name": "value",
          "type": "uint256"
        }
      ],
      "name": "setTotal",
      "outputs": [],
      "stateMutability": "nonpayable",
      "type": "function"
    }
  ],
  "bytecode": "0x608060405234801561001057600080fd5b5061028d806100206000396000f3fe608060405234801561001057600080fd5b506004361061004c5760003560e01c80631f8d1d5014610051578063775a25e31461006d57806381fa54311461008b578063c97231df146100a7575b600080fd5b61006b60048036038101906100669190610147565b6100c3565b005b6100756100cd565b6040516100829190610183565b60405180910390f35b6100a560048036038101906100a09190610147565b6100d6565b005b6100c160048036038101906100bc9190610147565b6100f1565b005b8060008190555050565b60008054905090565b806000808282546100e791906101cd565b9250508190555050565b806000808282546101029190610223565b9250508190555050565b600080fd5b6000819050919050565b61012481610111565b811461012f57600080fd5b50565b6000813590506101418161011b565b92915050565b60006020828403121561015d5761015c61010c565b5b600061016b84828501610132565b91505092915050565b61017d81610111565b82525050565b60006020820190506101986000830184610174565b92915050565b7f4e487b7100000000000000000000000000000000000000000000000000000000600052601160045260246000fd5b60006101d882610111565b91506101e383610111565b9250827fffffffffffffffffffffffffffffffffffffffffffffffffffffffffffffffff038211156102185761021761019e565b5b828201905092915050565b600061022e82610111565b915061023983610111565b92508282101561024c5761024b61019e565b5b82820390509291505056fea2646970667358221220a241574cecbd7e35a731a75dbda455b7adfb922cbae65cfa2f3593c5b3fc911164736f6c634300080b0033",
  "linkReferences": {},
  "deployedLinkReferences": {}
}