{
  "_format": "hh-sol-artifact-1",
  "contractName": "Airdrop",
  "sourceName": "contracts/Airdrop.sol",
  "abi": [
    {
      "anonymous": false,
      "inputs": [
        {
          "indexed": true,
          "internalType": "address",
          "name": "previousOwner",
          "type": "address"
        },
        {
          "indexed": true,
          "internalType": "address",
          "name": "newOwner",
          "type": "address"
        }
      ],
      "name": "OwnershipTransferred",
      "type": "event"
    },
    {
      "anonymous": false,
      "inputs": [
        {
          "indexed": false,
          "internalType": "address",
          "name": "receipt",
          "type": "address"
        },
        {
          "indexed": false,
          "internalType": "string",
          "name": "token",
          "type": "string"
        },
        {
          "indexed": false,
          "internalType": "uint256",
          "name": "amount",
          "type": "uint256"
        }
      ],
      "name": "Setting",
      "type": "event"
    },
    {
      "anonymous": false,
      "inputs": [
        {
          "indexed": false,
          "internalType": "address",
          "name": "receipt",
          "type": "address"
        },
        {
          "indexed": false,
          "internalType": "uint256",
          "name": "amount",
          "type": "uint256"
        }
      ],
      "name": "SettingETH",
      "type": "event"
    },
    {
      "anonymous": false,
      "inputs": [
        {
          "indexed": false,
          "internalType": "address",
          "name": "receipt",
          "type": "address"
        },
        {
          "indexed": false,
          "internalType": "string",
          "name": "token",
          "type": "string"
        },
        {
          "indexed": false,
          "internalType": "uint256",
          "name": "amount",
          "type": "uint256"
        }
      ],
      "name": "Transfer",
      "type": "event"
    },
    {
      "anonymous": false,
      "inputs": [
        {
          "indexed": false,
          "internalType": "address",
          "name": "recept",
          "type": "address"
        },
        {
          "indexed": false,
          "internalType": "uint256",
          "name": "amount",
          "type": "uint256"
        }
      ],
      "name": "TransferETH",
      "type": "event"
    },
    {
      "inputs": [
        {
          "internalType": "address",
          "name": "receipt",
          "type": "address"
        },
        {
          "internalType": "uint256",
          "name": "amount",
          "type": "uint256"
        }
      ],
      "name": "allowETH",
      "outputs": [],
      "stateMutability": "nonpayable",
      "type": "function"
    },
    {
      "inputs": [
        {
          "internalType": "address",
          "name": "receipt",
          "type": "address"
        },
        {
          "internalType": "address",
          "name": "token",
          "type": "address"
        },
        {
          "internalType": "uint256",
          "name": "amount",
          "type": "uint256"
        }
      ],
      "name": "alowERC20",
      "outputs": [],
      "stateMutability": "nonpayable",
      "type": "function"
    },
    {
      "inputs": [
        {
          "internalType": "address",
          "name": "receipt",
          "type": "address"
        }
      ],
      "name": "balanceETH",
      "outputs": [
        {
          "internalType": "uint256",
          "name": "",
          "type": "uint256"
        }
      ],
      "stateMutability": "view",
      "type": "function"
    },
    {
      "inputs": [
        {
          "internalType": "address",
          "name": "receipt",
          "type": "address"
        },
        {
          "internalType": "address",
          "name": "token",
          "type": "address"
        }
      ],
      "name": "balanceOf",
      "outputs": [
        {
          "internalType": "uint256",
          "name": "",
          "type": "uint256"
        }
      ],
      "stateMutability": "view",
      "type": "function"
    },
    {
      "inputs": [
        {
          "internalType": "address[]",
          "name": "tokens",
          "type": "address[]"
        },
        {
          "internalType": "uint256[]",
          "name": "amounts",
          "type": "uint256[]"
        },
        {
          "internalType": "bool",
          "name": "eth",
          "type": "bool"
        },
        {
          "internalType": "uint256",
          "name": "ethAmount",
          "type": "uint256"
        }
      ],
      "name": "claim",
      "outputs": [],
      "stateMutability": "nonpayable",
      "type": "function"
    },
    {
      "inputs": [],
      "name": "claimAll",
      "outputs": [],
      "stateMutability": "nonpayable",
      "type": "function"
    },
    {
      "inputs": [],
      "name": "owner",
      "outputs": [
        {
          "internalType": "address",
          "name": "",
          "type": "address"
        }
      ],
      "stateMutability": "view",
      "type": "function"
    },
    {
      "inputs": [],
      "name": "renounceOwnership",
      "outputs": [],
      "stateMutability": "nonpayable",
      "type": "function"
    },
    {
      "inputs": [
        {
          "internalType": "address",
          "name": "newOwner",
          "type": "address"
        }
      ],
      "name": "transferOwnership",
      "outputs": [],
      "stateMutability": "nonpayable",
      "type": "function"
    },
    {
      "stateMutability": "payable",
      "type": "receive"
    }
  ],
  "bytecode": "0x608060405234801561001057600080fd5b5061002d61002261003260201b60201c565b61003a60201b60201c565b6100fe565b600033905090565b60008060009054906101000a900473ffffffffffffffffffffffffffffffffffffffff169050816000806101000a81548173ffffffffffffffffffffffffffffffffffffffff021916908373ffffffffffffffffffffffffffffffffffffffff1602179055508173ffffffffffffffffffffffffffffffffffffffff168173ffffffffffffffffffffffffffffffffffffffff167f8be0079c531659141344cd1fd0a4f28419497f9722a3daafe3b4186f6b6457e060405160405180910390a35050565b611f8a8061010d6000396000f3fe60806040526004361061008a5760003560e01c806385ee00f31161005957806385ee00f31461013c5780638da5cb5b14610165578063d1058e5914610190578063f2fde38b146101a7578063f7888aec146101d057610091565b806336fc99531461009657806338fbc36b146100bf5780633b11e5c8146100e8578063715018a61461012557610091565b3661009157005b600080fd5b3480156100a257600080fd5b506100bd60048036038101906100b891906114a2565b61020d565b005b3480156100cb57600080fd5b506100e660048036038101906100e191906114f5565b610609565b005b3480156100f457600080fd5b5061010f600480360381019061010a9190611535565b610716565b60405161011c9190611571565b60405180910390f35b34801561013157600080fd5b5061013a61075f565b005b34801561014857600080fd5b50610163600480360381019061015e91906117e0565b610773565b005b34801561017157600080fd5b5061017a6108b1565b604051610187919061188e565b60405180910390f35b34801561019c57600080fd5b506101a56108da565b005b3480156101b357600080fd5b506101ce60048036038101906101c99190611535565b610c1b565b005b3480156101dc57600080fd5b506101f760048036038101906101f291906118a9565b610c9f565b6040516102049190611571565b60405180910390f35b610215610d26565b82600073ffffffffffffffffffffffffffffffffffffffff168173ffffffffffffffffffffffffffffffffffffffff161415610286576040517f08c379a000000000000000000000000000000000000000000000000000000000815260040161027d90611946565b60405180910390fd5b82600073ffffffffffffffffffffffffffffffffffffffff168173ffffffffffffffffffffffffffffffffffffffff1614156102f7576040517f08c379a00000000000000000000000000000000000000000000000000000000081526004016102ee90611946565b60405180910390fd5b600084905083600160008873ffffffffffffffffffffffffffffffffffffffff1673ffffffffffffffffffffffffffffffffffffffff16815260200190815260200160002060008773ffffffffffffffffffffffffffffffffffffffff1673ffffffffffffffffffffffffffffffffffffffff16815260200190815260200160002060008282546103889190611995565b92505081905550600360008773ffffffffffffffffffffffffffffffffffffffff1673ffffffffffffffffffffffffffffffffffffffff16815260200190815260200160002060008673ffffffffffffffffffffffffffffffffffffffff1673ffffffffffffffffffffffffffffffffffffffff16815260200190815260200160002060009054906101000a900460ff166104b3576001600360008873ffffffffffffffffffffffffffffffffffffffff1673ffffffffffffffffffffffffffffffffffffffff16815260200190815260200160002060008773ffffffffffffffffffffffffffffffffffffffff1673ffffffffffffffffffffffffffffffffffffffff16815260200190815260200160002060006101000a81548160ff0219169083151502179055505b600460008773ffffffffffffffffffffffffffffffffffffffff1673ffffffffffffffffffffffffffffffffffffffff168152602001908152602001600020859080600181540180825580915050600190039060005260206000200160009091909190916101000a81548173ffffffffffffffffffffffffffffffffffffffff021916908373ffffffffffffffffffffffffffffffffffffffff1602179055507ffee26be9f2f151c909585e19e0769d31f132663436e59c84089084a450328faf868273ffffffffffffffffffffffffffffffffffffffff166306fdde036040518163ffffffff1660e01b8152600401600060405180830381865afa1580156105c0573d6000803e3d6000fd5b505050506040513d6000823e3d601f19601f820116820180604052508101906105e99190611ac4565b866040516105f993929190611b51565b60405180910390a1505050505050565b610611610d26565b81600073ffffffffffffffffffffffffffffffffffffffff168173ffffffffffffffffffffffffffffffffffffffff161415610682576040517f08c379a000000000000000000000000000000000000000000000000000000000815260040161067990611946565b60405180910390fd5b81600260008573ffffffffffffffffffffffffffffffffffffffff1673ffffffffffffffffffffffffffffffffffffffff16815260200190815260200160002060008282546106d19190611995565b925050819055507f2d39fd6d8a96ede94b568af00faeef28d099766aa592c57a808b37f0039986e48383604051610709929190611b8f565b60405180910390a1505050565b6000600260008373ffffffffffffffffffffffffffffffffffffffff1673ffffffffffffffffffffffffffffffffffffffff168152602001908152602001600020549050919050565b610767610d26565b6107716000610da4565b565b82518451146107b7576040517f08c379a00000000000000000000000000000000000000000000000000000000081526004016107ae90611c04565b60405180910390fd5b60008451905060005b8181101561085957610807338783815181106107df576107de611c24565b5b60200260200101518784815181106107fa576107f9611c24565b5b6020026020010151610e68565b610846576040517f08c379a000000000000000000000000000000000000000000000000000000000815260040161083d90611c9f565b60405180910390fd5b808061085190611cbf565b9150506107c0565b5082156108aa5761086a33836111de565b6108a9576040517f08c379a00000000000000000000000000000000000000000000000000000000081526004016108a090611d54565b60405180910390fd5b5b5050505050565b60008060009054906101000a900473ffffffffffffffffffffffffffffffffffffffff16905090565b6000600260003373ffffffffffffffffffffffffffffffffffffffff1673ffffffffffffffffffffffffffffffffffffffff1681526020019081526020016000205411156109ab5761096b33600260003373ffffffffffffffffffffffffffffffffffffffff1673ffffffffffffffffffffffffffffffffffffffff168152602001908152602001600020546111de565b6109aa576040517f08c379a00000000000000000000000000000000000000000000000000000000081526004016109a190611d54565b60405180910390fd5b5b6000600460003373ffffffffffffffffffffffffffffffffffffffff1673ffffffffffffffffffffffffffffffffffffffff16815260200190815260200160002080549050905060005b81811015610bcc57610b7a33600460003373ffffffffffffffffffffffffffffffffffffffff1673ffffffffffffffffffffffffffffffffffffffff1681526020019081526020016000208381548110610a5257610a51611c24565b5b9060005260206000200160009054906101000a900473ffffffffffffffffffffffffffffffffffffffff16600160003373ffffffffffffffffffffffffffffffffffffffff1673ffffffffffffffffffffffffffffffffffffffff1681526020019081526020016000206000600460003373ffffffffffffffffffffffffffffffffffffffff1673ffffffffffffffffffffffffffffffffffffffff1681526020019081526020016000208681548110610b0f57610b0e611c24565b5b9060005260206000200160009054906101000a900473ffffffffffffffffffffffffffffffffffffffff1673ffffffffffffffffffffffffffffffffffffffff1673ffffffffffffffffffffffffffffffffffffffff16815260200190815260200160002054610e68565b610bb9576040517f08c379a0000000000000000000000000000000000000000000000000000000008152600401610bb090611c9f565b60405180910390fd5b8080610bc490611cbf565b9150506109f5565b50600460003373ffffffffffffffffffffffffffffffffffffffff1673ffffffffffffffffffffffffffffffffffffffff1681526020019081526020016000206000610c1891906113bc565b50565b610c23610d26565b600073ffffffffffffffffffffffffffffffffffffffff168173ffffffffffffffffffffffffffffffffffffffff161415610c93576040517f08c379a0000000000000000000000000000000000000000000000000000000008152600401610c8a90611de6565b60405180910390fd5b610c9c81610da4565b50565b6000600160008473ffffffffffffffffffffffffffffffffffffffff1673ffffffffffffffffffffffffffffffffffffffff16815260200190815260200160002060008373ffffffffffffffffffffffffffffffffffffffff1673ffffffffffffffffffffffffffffffffffffffff16815260200190815260200160002054905092915050565b610d2e6113b4565b73ffffffffffffffffffffffffffffffffffffffff16610d4c6108b1565b73ffffffffffffffffffffffffffffffffffffffff1614610da2576040517f08c379a0000000000000000000000000000000000000000000000000000000008152600401610d9990611e52565b60405180910390fd5b565b60008060009054906101000a900473ffffffffffffffffffffffffffffffffffffffff169050816000806101000a81548173ffffffffffffffffffffffffffffffffffffffff021916908373ffffffffffffffffffffffffffffffffffffffff1602179055508173ffffffffffffffffffffffffffffffffffffffff168173ffffffffffffffffffffffffffffffffffffffff167f8be0079c531659141344cd1fd0a4f28419497f9722a3daafe3b4186f6b6457e060405160405180910390a35050565b600083600073ffffffffffffffffffffffffffffffffffffffff168173ffffffffffffffffffffffffffffffffffffffff161415610edb576040517f08c379a0000000000000000000000000000000000000000000000000000000008152600401610ed290611946565b60405180910390fd5b83600073ffffffffffffffffffffffffffffffffffffffff168173ffffffffffffffffffffffffffffffffffffffff161415610f4c576040517f08c379a0000000000000000000000000000000000000000000000000000000008152600401610f4390611946565b60405180910390fd5b83600160003373ffffffffffffffffffffffffffffffffffffffff1673ffffffffffffffffffffffffffffffffffffffff16815260200190815260200160002060008773ffffffffffffffffffffffffffffffffffffffff1673ffffffffffffffffffffffffffffffffffffffff16815260200190815260200160002054101561100b576040517f08c379a000000000000000000000000000000000000000000000000000000000815260040161100290611ebe565b60405180910390fd5b600085905084600160003373ffffffffffffffffffffffffffffffffffffffff1673ffffffffffffffffffffffffffffffffffffffff16815260200190815260200160002060008873ffffffffffffffffffffffffffffffffffffffff1673ffffffffffffffffffffffffffffffffffffffff168152602001908152602001600020600082825461109c9190611ede565b925050819055508073ffffffffffffffffffffffffffffffffffffffff1663a9059cbb88876040518363ffffffff1660e01b81526004016110de929190611b8f565b6020604051808303816000875af11580156110fd573d6000803e3d6000fd5b505050506040513d601f19601f820116820180604052508101906111219190611f27565b507f0844b14fe102ea307aadd2235f4dbb2e0c33cc0466085bd36b25e54ddf9c4a94878273ffffffffffffffffffffffffffffffffffffffff166306fdde036040518163ffffffff1660e01b8152600401600060405180830381865afa15801561118f573d6000803e3d6000fd5b505050506040513d6000823e3d601f19601f820116820180604052508101906111b89190611ac4565b876040516111c893929190611b51565b60405180910390a1600193505050509392505050565b600082600073ffffffffffffffffffffffffffffffffffffffff168173ffffffffffffffffffffffffffffffffffffffff161415611251576040517f08c379a000000000000000000000000000000000000000000000000000000000815260040161124890611946565b60405180910390fd5b82600260008673ffffffffffffffffffffffffffffffffffffffff1673ffffffffffffffffffffffffffffffffffffffff1681526020019081526020016000205410156112d3576040517f08c379a00000000000000000000000000000000000000000000000000000000081526004016112ca90611ebe565b60405180910390fd5b82600260008673ffffffffffffffffffffffffffffffffffffffff1673ffffffffffffffffffffffffffffffffffffffff16815260200190815260200160002060008282546113229190611ede565b925050819055508373ffffffffffffffffffffffffffffffffffffffff166108fc849081150290604051600060405180830381858888f1935050505015801561136f573d6000803e3d6000fd5b507ffd69c215b8b91dab5e96ff0bcbaf5dc372919948eea2003ae16481c036f816f833846040516113a1929190611b8f565b60405180910390a1600191505092915050565b600033905090565b50805460008255906000526020600020908101906113da91906113dd565b50565b5b808211156113f65760008160009055506001016113de565b5090565b6000604051905090565b600080fd5b600080fd5b600073ffffffffffffffffffffffffffffffffffffffff82169050919050565b60006114398261140e565b9050919050565b6114498161142e565b811461145457600080fd5b50565b60008135905061146681611440565b92915050565b6000819050919050565b61147f8161146c565b811461148a57600080fd5b50565b60008135905061149c81611476565b92915050565b6000806000606084860312156114bb576114ba611404565b5b60006114c986828701611457565b93505060206114da86828701611457565b92505060406114eb8682870161148d565b9150509250925092565b6000806040838503121561150c5761150b611404565b5b600061151a85828601611457565b925050602061152b8582860161148d565b9150509250929050565b60006020828403121561154b5761154a611404565b5b600061155984828501611457565b91505092915050565b61156b8161146c565b82525050565b60006020820190506115866000830184611562565b92915050565b600080fd5b6000601f19601f8301169050919050565b7f4e487b7100000000000000000000000000000000000000000000000000000000600052604160045260246000fd5b6115da82611591565b810181811067ffffffffffffffff821117156115f9576115f86115a2565b5b80604052505050565b600061160c6113fa565b905061161882826115d1565b919050565b600067ffffffffffffffff821115611638576116376115a2565b5b602082029050602081019050919050565b600080fd5b600061166161165c8461161d565b611602565b9050808382526020820190506020840283018581111561168457611683611649565b5b835b818110156116ad57806116998882611457565b845260208401935050602081019050611686565b5050509392505050565b600082601f8301126116cc576116cb61158c565b5b81356116dc84826020860161164e565b91505092915050565b600067ffffffffffffffff821115611700576116ff6115a2565b5b602082029050602081019050919050565b600061172461171f846116e5565b611602565b9050808382526020820190506020840283018581111561174757611746611649565b5b835b81811015611770578061175c888261148d565b845260208401935050602081019050611749565b5050509392505050565b600082601f83011261178f5761178e61158c565b5b813561179f848260208601611711565b91505092915050565b60008115159050919050565b6117bd816117a8565b81146117c857600080fd5b50565b6000813590506117da816117b4565b92915050565b600080600080608085870312156117fa576117f9611404565b5b600085013567ffffffffffffffff81111561181857611817611409565b5b611824878288016116b7565b945050602085013567ffffffffffffffff81111561184557611844611409565b5b6118518782880161177a565b9350506040611862878288016117cb565b92505060606118738782880161148d565b91505092959194509250565b6118888161142e565b82525050565b60006020820190506118a3600083018461187f565b92915050565b600080604083850312156118c0576118bf611404565b5b60006118ce85828601611457565b92505060206118df85828601611457565b9150509250929050565b600082825260208201905092915050565b7f5a65726f20616464726573730000000000000000000000000000000000000000600082015250565b6000611930600c836118e9565b915061193b826118fa565b602082019050919050565b6000602082019050818103600083015261195f81611923565b9050919050565b7f4e487b7100000000000000000000000000000000000000000000000000000000600052601160045260246000fd5b60006119a08261146c565b91506119ab8361146c565b9250827fffffffffffffffffffffffffffffffffffffffffffffffffffffffffffffffff038211156119e0576119df611966565b5b828201905092915050565b600080fd5b600067ffffffffffffffff821115611a0b57611a0a6115a2565b5b611a1482611591565b9050602081019050919050565b60005b83811015611a3f578082015181840152602081019050611a24565b83811115611a4e576000848401525b50505050565b6000611a67611a62846119f0565b611602565b905082815260208101848484011115611a8357611a826119eb565b5b611a8e848285611a21565b509392505050565b600082601f830112611aab57611aaa61158c565b5b8151611abb848260208601611a54565b91505092915050565b600060208284031215611ada57611ad9611404565b5b600082015167ffffffffffffffff811115611af857611af7611409565b5b611b0484828501611a96565b91505092915050565b600081519050919050565b6000611b2382611b0d565b611b2d81856118e9565b9350611b3d818560208601611a21565b611b4681611591565b840191505092915050565b6000606082019050611b66600083018661187f565b8181036020830152611b788185611b18565b9050611b876040830184611562565b949350505050565b6000604082019050611ba4600083018561187f565b611bb16020830184611562565b9392505050565b7f446966666572656e74206c656e67746800000000000000000000000000000000600082015250565b6000611bee6010836118e9565b9150611bf982611bb8565b602082019050919050565b60006020820190508181036000830152611c1d81611be1565b9050919050565b7f4e487b7100000000000000000000000000000000000000000000000000000000600052603260045260246000fd5b7f5472616e7366657220746f6b656e206661696c00000000000000000000000000600082015250565b6000611c896013836118e9565b9150611c9482611c53565b602082019050919050565b60006020820190508181036000830152611cb881611c7c565b9050919050565b6000611cca8261146c565b91507fffffffffffffffffffffffffffffffffffffffffffffffffffffffffffffffff821415611cfd57611cfc611966565b5b600182019050919050565b7f5472616e7366657220657468206661696c000000000000000000000000000000600082015250565b6000611d3e6011836118e9565b9150611d4982611d08565b602082019050919050565b60006020820190508181036000830152611d6d81611d31565b9050919050565b7f4f776e61626c653a206e6577206f776e657220697320746865207a65726f206160008201527f6464726573730000000000000000000000000000000000000000000000000000602082015250565b6000611dd06026836118e9565b9150611ddb82611d74565b604082019050919050565b60006020820190508181036000830152611dff81611dc3565b9050919050565b7f4f776e61626c653a2063616c6c6572206973206e6f7420746865206f776e6572600082015250565b6000611e3c6020836118e9565b9150611e4782611e06565b602082019050919050565b60006020820190508181036000830152611e6b81611e2f565b9050919050565b7f496e73756666696369656e742062616c616e6365000000000000000000000000600082015250565b6000611ea86014836118e9565b9150611eb382611e72565b602082019050919050565b60006020820190508181036000830152611ed781611e9b565b9050919050565b6000611ee98261146c565b9150611ef48361146c565b925082821015611f0757611f06611966565b5b828203905092915050565b600081519050611f21816117b4565b92915050565b600060208284031215611f3d57611f3c611404565b5b6000611f4b84828501611f12565b9150509291505056fea2646970667358221220fcd40248158c7e46e4e8445fe00f1cbe9b91c9455e363786117292011528b81b64736f6c634300080b0033",
  "linkReferences": {},
  "deployedLinkReferences": {}
}